{
  "_format": "hh-sol-artifact-1",
  "contractName": "RefugeeFinance",
  "sourceName": "contracts/RefugeeFinance.sol",
  "abi": [
    {
      "inputs": [
        {
          "internalType": "address",
          "name": "initialOwner",
          "type": "address"
        }
      ],
      "stateMutability": "nonpayable",
      "type": "constructor"
    },
    {
      "inputs": [
        {
          "internalType": "address",
          "name": "sender",
          "type": "address"
        },
        {
          "internalType": "uint256",
          "name": "tokenId",
          "type": "uint256"
        },
        {
          "internalType": "address",
          "name": "owner",
          "type": "address"
        }
      ],
      "name": "ERC721IncorrectOwner",
      "type": "error"
    },
    {
      "inputs": [
        {
          "internalType": "address",
          "name": "operator",
          "type": "address"
        },
        {
          "internalType": "uint256",
          "name": "tokenId",
          "type": "uint256"
        }
      ],
      "name": "ERC721InsufficientApproval",
      "type": "error"
    },
    {
      "inputs": [
        {
          "internalType": "address",
          "name": "approver",
          "type": "address"
        }
      ],
      "name": "ERC721InvalidApprover",
      "type": "error"
    },
    {
      "inputs": [
        {
          "internalType": "address",
          "name": "operator",
          "type": "address"
        }
      ],
      "name": "ERC721InvalidOperator",
      "type": "error"
    },
    {
      "inputs": [
        {
          "internalType": "address",
          "name": "owner",
          "type": "address"
        }
      ],
      "name": "ERC721InvalidOwner",
      "type": "error"
    },
    {
      "inputs": [
        {
          "internalType": "address",
          "name": "receiver",
          "type": "address"
        }
      ],
      "name": "ERC721InvalidReceiver",
      "type": "error"
    },
    {
      "inputs": [
        {
          "internalType": "address",
          "name": "sender",
          "type": "address"
        }
      ],
      "name": "ERC721InvalidSender",
      "type": "error"
    },
    {
      "inputs": [
        {
          "internalType": "uint256",
          "name": "tokenId",
          "type": "uint256"
        }
      ],
      "name": "ERC721NonexistentToken",
      "type": "error"
    },
    {
      "inputs": [
        {
          "internalType": "address",
          "name": "owner",
          "type": "address"
        }
      ],
      "name": "OwnableInvalidOwner",
      "type": "error"
    },
    {
      "inputs": [
        {
          "internalType": "address",
          "name": "account",
          "type": "address"
        }
      ],
      "name": "OwnableUnauthorizedAccount",
      "type": "error"
    },
    {
      "anonymous": false,
      "inputs": [
        {
          "indexed": true,
          "internalType": "address",
          "name": "owner",
          "type": "address"
        },
        {
          "indexed": true,
          "internalType": "address",
          "name": "approved",
          "type": "address"
        },
        {
          "indexed": true,
          "internalType": "uint256",
          "name": "tokenId",
          "type": "uint256"
        }
      ],
      "name": "Approval",
      "type": "event"
    },
    {
      "anonymous": false,
      "inputs": [
        {
          "indexed": true,
          "internalType": "address",
          "name": "owner",
          "type": "address"
        },
        {
          "indexed": true,
          "internalType": "address",
          "name": "operator",
          "type": "address"
        },
        {
          "indexed": false,
          "internalType": "bool",
          "name": "approved",
          "type": "bool"
        }
      ],
      "name": "ApprovalForAll",
      "type": "event"
    },
    {
      "anonymous": false,
      "inputs": [
        {
          "indexed": false,
          "internalType": "uint256",
          "name": "_fromTokenId",
          "type": "uint256"
        },
        {
          "indexed": false,
          "internalType": "uint256",
          "name": "_toTokenId",
          "type": "uint256"
        }
      ],
      "name": "BatchMetadataUpdate",
      "type": "event"
    },
    {
      "anonymous": false,
      "inputs": [
        {
          "indexed": true,
          "internalType": "address",
          "name": "user",
          "type": "address"
        },
        {
          "indexed": false,
          "internalType": "int256",
          "name": "newScore",
          "type": "int256"
        }
      ],
      "name": "CreditUpdated",
      "type": "event"
    },
    {
      "anonymous": false,
      "inputs": [
        {
          "indexed": true,
          "internalType": "address",
          "name": "borrower",
          "type": "address"
        },
        {
          "indexed": false,
          "internalType": "uint256",
          "name": "amount",
          "type": "uint256"
        }
      ],
      "name": "LoanIssued",
      "type": "event"
    },
    {
      "anonymous": false,
      "inputs": [
        {
          "indexed": true,
          "internalType": "address",
          "name": "borrower",
          "type": "address"
        },
        {
          "indexed": false,
          "internalType": "uint256",
          "name": "amount",
          "type": "uint256"
        }
      ],
      "name": "LoanRepaid",
      "type": "event"
    },
    {
      "anonymous": false,
      "inputs": [
        {
          "indexed": false,
          "internalType": "uint256",
          "name": "_tokenId",
          "type": "uint256"
        }
      ],
      "name": "MetadataUpdate",
      "type": "event"
    },
    {
      "anonymous": false,
      "inputs": [
        {
          "indexed": true,
          "internalType": "address",
          "name": "previousOwner",
          "type": "address"
        },
        {
          "indexed": true,
          "internalType": "address",
          "name": "newOwner",
          "type": "address"
        }
      ],
      "name": "OwnershipTransferred",
      "type": "event"
    },
    {
      "anonymous": false,
      "inputs": [
        {
          "indexed": true,
          "internalType": "address",
          "name": "from",
          "type": "address"
        },
        {
          "indexed": true,
          "internalType": "address",
          "name": "to",
          "type": "address"
        },
        {
          "indexed": true,
          "internalType": "uint256",
          "name": "tokenId",
          "type": "uint256"
        }
      ],
      "name": "Transfer",
      "type": "event"
    },
    {
      "inputs": [],
      "name": "MAX_LOAN",
      "outputs": [
        {
          "internalType": "uint256",
          "name": "",
          "type": "uint256"
        }
      ],
      "stateMutability": "view",
      "type": "function"
    },
    {
      "inputs": [
        {
          "internalType": "address",
          "name": "to",
          "type": "address"
        },
        {
          "internalType": "uint256",
          "name": "tokenId",
          "type": "uint256"
        }
      ],
      "name": "approve",
      "outputs": [],
      "stateMutability": "nonpayable",
      "type": "function"
    },
    {
      "inputs": [
        {
          "internalType": "address",
          "name": "owner",
          "type": "address"
        }
      ],
      "name": "balanceOf",
      "outputs": [
        {
          "internalType": "uint256",
          "name": "",
          "type": "uint256"
        }
      ],
      "stateMutability": "view",
      "type": "function"
    },
    {
      "inputs": [
        {
          "internalType": "address",
          "name": "",
          "type": "address"
        }
      ],
      "name": "creditScore",
      "outputs": [
        {
          "internalType": "int256",
          "name": "",
          "type": "int256"
        }
      ],
      "stateMutability": "view",
      "type": "function"
    },
    {
      "inputs": [
        {
          "internalType": "uint256",
          "name": "tokenId",
          "type": "uint256"
        }
      ],
      "name": "getApproved",
      "outputs": [
        {
          "internalType": "address",
          "name": "",
          "type": "address"
        }
      ],
      "stateMutability": "view",
      "type": "function"
    },
    {
      "inputs": [
        {
          "internalType": "address",
          "name": "user",
          "type": "address"
        }
      ],
      "name": "getUserDocument",
      "outputs": [
        {
          "internalType": "string",
          "name": "",
          "type": "string"
        }
      ],
      "stateMutability": "view",
      "type": "function"
    },
    {
      "inputs": [
        {
          "internalType": "address",
          "name": "owner",
          "type": "address"
        },
        {
          "internalType": "address",
          "name": "operator",
          "type": "address"
        }
      ],
      "name": "isApprovedForAll",
      "outputs": [
        {
          "internalType": "bool",
          "name": "",
          "type": "bool"
        }
      ],
      "stateMutability": "view",
      "type": "function"
    },
    {
      "inputs": [
        {
          "internalType": "address",
          "name": "",
          "type": "address"
        }
      ],
      "name": "loanAmount",
      "outputs": [
        {
          "internalType": "uint256",
          "name": "",
          "type": "uint256"
        }
      ],
      "stateMutability": "view",
      "type": "function"
    },
    {
      "inputs": [
        {
          "internalType": "address",
          "name": "",
          "type": "address"
        }
      ],
      "name": "loanDueDate",
      "outputs": [
        {
          "internalType": "uint256",
          "name": "",
          "type": "uint256"
        }
      ],
      "stateMutability": "view",
      "type": "function"
    },
    {
      "inputs": [
        {
          "internalType": "address",
          "name": "",
          "type": "address"
        }
      ],
      "name": "loanRepaid",
      "outputs": [
        {
          "internalType": "uint256",
          "name": "",
          "type": "uint256"
        }
      ],
      "stateMutability": "view",
      "type": "function"
    },
    {
      "inputs": [],
      "name": "name",
      "outputs": [
        {
          "internalType": "string",
          "name": "",
          "type": "string"
        }
      ],
      "stateMutability": "view",
      "type": "function"
    },
    {
      "inputs": [],
      "name": "owner",
      "outputs": [
        {
          "internalType": "address",
          "name": "",
          "type": "address"
        }
      ],
      "stateMutability": "view",
      "type": "function"
    },
    {
      "inputs": [
        {
          "internalType": "uint256",
          "name": "tokenId",
          "type": "uint256"
        }
      ],
      "name": "ownerOf",
      "outputs": [
        {
          "internalType": "address",
          "name": "",
          "type": "address"
        }
      ],
      "stateMutability": "view",
      "type": "function"
    },
    {
      "inputs": [
        {
          "internalType": "address",
          "name": "to",
          "type": "address"
        },
        {
          "internalType": "string",
          "name": "ipfsHash",
          "type": "string"
        }
      ],
      "name": "registerRefugee",
      "outputs": [],
      "stateMutability": "nonpayable",
      "type": "function"
    },
    {
      "inputs": [],
      "name": "renounceOwnership",
      "outputs": [],
      "stateMutability": "nonpayable",
      "type": "function"
    },
    {
      "inputs": [],
      "name": "repayLoan",
      "outputs": [],
      "stateMutability": "payable",
      "type": "function"
    },
    {
      "inputs": [
        {
          "internalType": "uint256",
          "name": "amount",
          "type": "uint256"
        }
      ],
      "name": "requestLoan",
      "outputs": [],
      "stateMutability": "nonpayable",
      "type": "function"
    },
    {
      "inputs": [
        {
          "internalType": "address",
          "name": "from",
          "type": "address"
        },
        {
          "internalType": "address",
          "name": "to",
          "type": "address"
        },
        {
          "internalType": "uint256",
          "name": "tokenId",
          "type": "uint256"
        }
      ],
      "name": "safeTransferFrom",
      "outputs": [],
      "stateMutability": "nonpayable",
      "type": "function"
    },
    {
      "inputs": [
        {
          "internalType": "address",
          "name": "from",
          "type": "address"
        },
        {
          "internalType": "address",
          "name": "to",
          "type": "address"
        },
        {
          "internalType": "uint256",
          "name": "tokenId",
          "type": "uint256"
        },
        {
          "internalType": "bytes",
          "name": "data",
          "type": "bytes"
        }
      ],
      "name": "safeTransferFrom",
      "outputs": [],
      "stateMutability": "nonpayable",
      "type": "function"
    },
    {
      "inputs": [
        {
          "internalType": "address",
          "name": "operator",
          "type": "address"
        },
        {
          "internalType": "bool",
          "name": "approved",
          "type": "bool"
        }
      ],
      "name": "setApprovalForAll",
      "outputs": [],
      "stateMutability": "nonpayable",
      "type": "function"
    },
    {
      "inputs": [
        {
          "internalType": "bytes4",
          "name": "interfaceId",
          "type": "bytes4"
        }
      ],
      "name": "supportsInterface",
      "outputs": [
        {
          "internalType": "bool",
          "name": "",
          "type": "bool"
        }
      ],
      "stateMutability": "view",
      "type": "function"
    },
    {
      "inputs": [],
      "name": "symbol",
      "outputs": [
        {
          "internalType": "string",
          "name": "",
          "type": "string"
        }
      ],
      "stateMutability": "view",
      "type": "function"
    },
    {
      "inputs": [
        {
          "internalType": "uint256",
          "name": "tokenId",
          "type": "uint256"
        }
      ],
      "name": "tokenURI",
      "outputs": [
        {
          "internalType": "string",
          "name": "",
          "type": "string"
        }
      ],
      "stateMutability": "view",
      "type": "function"
    },
    {
      "inputs": [
        {
          "internalType": "address",
          "name": "from",
          "type": "address"
        },
        {
          "internalType": "address",
          "name": "to",
          "type": "address"
        },
        {
          "internalType": "uint256",
          "name": "tokenId",
          "type": "uint256"
        }
      ],
      "name": "transferFrom",
      "outputs": [],
      "stateMutability": "nonpayable",
      "type": "function"
    },
    {
      "inputs": [
        {
          "internalType": "address",
          "name": "newOwner",
          "type": "address"
        }
      ],
      "name": "transferOwnership",
      "outputs": [],
      "stateMutability": "nonpayable",
      "type": "function"
    },
    {
      "inputs": [
        {
          "internalType": "address",
          "name": "",
          "type": "address"
        }
      ],
      "name": "userInfo",
      "outputs": [
        {
          "internalType": "uint248",
          "name": "tokenId",
          "type": "uint248"
        },
        {
          "internalType": "bool",
          "name": "isVerified",
          "type": "bool"
        }
      ],
      "stateMutability": "view",
      "type": "function"
    },
    {
      "inputs": [
        {
          "internalType": "address",
          "name": "user",
          "type": "address"
        }
      ],
      "name": "verifyDocuments",
      "outputs": [],
      "stateMutability": "nonpayable",
      "type": "function"
    },
    {
      "stateMutability": "payable",
      "type": "receive"
    }
  ],
  "bytecode": "0x608060405234801561001057600080fd5b50604051613fe2380380613fe283398181016040528101906100329190610272565b806040518060400160405280600981526020017f52656675676565494400000000000000000000000000000000000000000000008152506040518060400160405280600381526020017f524944000000000000000000000000000000000000000000000000000000000081525081600090816100ae91906104ef565b5080600190816100be91906104ef565b505050600073ffffffffffffffffffffffffffffffffffffffff168173ffffffffffffffffffffffffffffffffffffffff16036101335760006040517f1e4fbdf700000000000000000000000000000000000000000000000000000000815260040161012a91906105d0565b60405180910390fd5b6101428161014960201b60201c565b50506105eb565b6000600760009054906101000a900473ffffffffffffffffffffffffffffffffffffffff16905081600760006101000a81548173ffffffffffffffffffffffffffffffffffffffff021916908373ffffffffffffffffffffffffffffffffffffffff1602179055508173ffffffffffffffffffffffffffffffffffffffff168173ffffffffffffffffffffffffffffffffffffffff167f8be0079c531659141344cd1fd0a4f28419497f9722a3daafe3b4186f6b6457e060405160405180910390a35050565b600080fd5b600073ffffffffffffffffffffffffffffffffffffffff82169050919050565b600061023f82610214565b9050919050565b61024f81610234565b811461025a57600080fd5b50565b60008151905061026c81610246565b92915050565b6000602082840312156102885761028761020f565b5b60006102968482850161025d565b91505092915050565b600081519050919050565b7f4e487b7100000000000000000000000000000000000000000000000000000000600052604160045260246000fd5b7f4e487b7100000000000000000000000000000000000000000000000000000000600052602260045260246000fd5b6000600282049050600182168061032057607f821691505b602082108103610333576103326102d9565b5b50919050565b60008190508160005260206000209050919050565b60006020601f8301049050919050565b600082821b905092915050565b60006008830261039b7fffffffffffffffffffffffffffffffffffffffffffffffffffffffffffffffff8261035e565b6103a5868361035e565b95508019841693508086168417925050509392505050565b6000819050919050565b6000819050919050565b60006103ec6103e76103e2846103bd565b6103c7565b6103bd565b9050919050565b6000819050919050565b610406836103d1565b61041a610412826103f3565b84845461036b565b825550505050565b600090565b61042f610422565b61043a8184846103fd565b505050565b5b8181101561045e57610453600082610427565b600181019050610440565b5050565b601f8211156104a35761047481610339565b61047d8461034e565b8101602085101561048c578190505b6104a06104988561034e565b83018261043f565b50505b505050565b600082821c905092915050565b60006104c6600019846008026104a8565b1980831691505092915050565b60006104df83836104b5565b9150826002028217905092915050565b6104f88261029f565b67ffffffffffffffff811115610511576105106102aa565b5b61051b8254610308565b610526828285610462565b600060209050601f8311600181146105595760008415610547578287015190505b61055185826104d3565b8655506105b9565b601f19841661056786610339565b60005b8281101561058f5784890151825560018201915060208501945060208101905061056a565b868310156105ac57848901516105a8601f8916826104b5565b8355505b6001600288020188555050505b505050505050565b6105ca81610234565b82525050565b60006020820190506105e560008301846105c1565b92915050565b6139e8806105fa6000396000f3fe6080604052600436106101a05760003560e01c806372e24d59116100ec578063c3e5a0241161008a578063e985e9c511610064578063e985e9c51461061a578063f2fde38b14610657578063f7e590ee14610680578063f966ade7146106bd576101a7565b8063c3e5a02414610563578063c87b56dd146105a0578063e06115e5146105dd576101a7565b80638da5cb5b116100c65780638da5cb5b146104bb57806395d89b41146104e6578063a22cb46514610511578063b88d4fde1461053a576101a7565b806372e24d591461042c5780638b3160e6146104695780638d5d342914610492576101a7565b806323b872dd11610159578063617554321161013357806361755432146103705780636352211e1461039b57806370a08231146103d8578063715018a614610415576101a7565b806323b872dd146102e15780633058a3271461030a57806342842e0e14610347576101a7565b806301ffc9a7146101ac57806306fdde03146101e9578063081812fc14610214578063095ea7b3146102515780630c295f121461027a5780631959a002146102a3576101a7565b366101a757005b600080fd5b3480156101b857600080fd5b506101d360048036038101906101ce9190612958565b6106c7565b6040516101e091906129a0565b60405180910390f35b3480156101f557600080fd5b506101fe6106d9565b60405161020b9190612a4b565b60405180910390f35b34801561022057600080fd5b5061023b60048036038101906102369190612aa3565b61076b565b6040516102489190612b11565b60405180910390f35b34801561025d57600080fd5b5061027860048036038101906102739190612b58565b610787565b005b34801561028657600080fd5b506102a1600480360381019061029c9190612ccd565b61079d565b005b3480156102af57600080fd5b506102ca60048036038101906102c59190612d29565b6108f0565b6040516102d8929190612d90565b60405180910390f35b3480156102ed57600080fd5b5061030860048036038101906103039190612db9565b61094c565b005b34801561031657600080fd5b50610331600480360381019061032c9190612d29565b610a4e565b60405161033e9190612e1b565b60405180910390f35b34801561035357600080fd5b5061036e60048036038101906103699190612db9565b610a66565b005b34801561037c57600080fd5b50610385610a86565b6040516103929190612e1b565b60405180910390f35b3480156103a757600080fd5b506103c260048036038101906103bd9190612aa3565b610a92565b6040516103cf9190612b11565b60405180910390f35b3480156103e457600080fd5b506103ff60048036038101906103fa9190612d29565b610aa4565b60405161040c9190612e1b565b60405180910390f35b34801561042157600080fd5b5061042a610b5e565b005b34801561043857600080fd5b50610453600480360381019061044e9190612d29565b610b72565b6040516104609190612a4b565b60405180910390f35b34801561047557600080fd5b50610490600480360381019061048b9190612d29565b610c12565b005b34801561049e57600080fd5b506104b960048036038101906104b49190612aa3565b610c78565b005b3480156104c757600080fd5b506104d061114a565b6040516104dd9190612b11565b60405180910390f35b3480156104f257600080fd5b506104fb611174565b6040516105089190612a4b565b60405180910390f35b34801561051d57600080fd5b5061053860048036038101906105339190612e62565b611206565b005b34801561054657600080fd5b50610561600480360381019061055c9190612f43565b61121c565b005b34801561056f57600080fd5b5061058a60048036038101906105859190612d29565b611241565b6040516105979190612e1b565b60405180910390f35b3480156105ac57600080fd5b506105c760048036038101906105c29190612aa3565b611259565b6040516105d49190612a4b565b60405180910390f35b3480156105e957600080fd5b5061060460048036038101906105ff9190612d29565b61126b565b6040516106119190612e1b565b60405180910390f35b34801561062657600080fd5b50610641600480360381019061063c9190612fc6565b611283565b60405161064e91906129a0565b60405180910390f35b34801561066357600080fd5b5061067e60048036038101906106799190612d29565b611317565b005b34801561068c57600080fd5b506106a760048036038101906106a29190612d29565b61139d565b6040516106b4919061301f565b60405180910390f35b6106c56113b5565b005b60006106d282611749565b9050919050565b6060600080546106e890613069565b80601f016020809104026020016040519081016040528092919081815260200182805461071490613069565b80156107615780601f1061073657610100808354040283529160200191610761565b820191906000526020600020905b81548152906001019060200180831161074457829003601f168201915b5050505050905090565b6000610776826117aa565b5061078082611832565b9050919050565b610799828261079461186f565b611877565b5050565b6107a5611889565b6000600860008154809291906107ba906130c9565b9190505590506107ca8382611910565b6107f381836040516020016107df9190613199565b604051602081830303815290604052611a09565b6040518060400160405280827effffffffffffffffffffffffffffffffffffffffffffffffffffffffffffff16815260200160001515815250600960008573ffffffffffffffffffffffffffffffffffffffff1673ffffffffffffffffffffffffffffffffffffffff16815260200190815260200160002060008201518160000160006101000a8154817effffffffffffffffffffffffffffffffffffffffffffffffffffffffffffff02191690837effffffffffffffffffffffffffffffffffffffffffffffffffffffffffffff160217905550602082015181600001601f6101000a81548160ff021916908315150217905550905050505050565b60096020528060005260406000206000915090508060000160009054906101000a90047effffffffffffffffffffffffffffffffffffffffffffffffffffffffffffff169080600001601f9054906101000a900460ff16905082565b600073ffffffffffffffffffffffffffffffffffffffff168273ffffffffffffffffffffffffffffffffffffffff16036109be5760006040517f64a0ae920000000000000000000000000000000000000000000000000000000081526004016109b59190612b11565b60405180910390fd5b60006109d283836109cd61186f565b611a65565b90508373ffffffffffffffffffffffffffffffffffffffff168173ffffffffffffffffffffffffffffffffffffffff1614610a48578382826040517f64283d7b000000000000000000000000000000000000000000000000000000008152600401610a3f939291906131bb565b60405180910390fd5b50505050565b600a6020528060005260406000206000915090505481565b610a818383836040518060200160405280600081525061121c565b505050565b6706f05b59d3b2000081565b6000610a9d826117aa565b9050919050565b60008073ffffffffffffffffffffffffffffffffffffffff168273ffffffffffffffffffffffffffffffffffffffff1603610b175760006040517f89c62b64000000000000000000000000000000000000000000000000000000008152600401610b0e9190612b11565b60405180910390fd5b600360008373ffffffffffffffffffffffffffffffffffffffff1673ffffffffffffffffffffffffffffffffffffffff168152602001908152602001600020549050919050565b610b66611889565b610b706000611c7f565b565b6060610c0b600960008473ffffffffffffffffffffffffffffffffffffffff1673ffffffffffffffffffffffffffffffffffffffff16815260200190815260200160002060000160009054906101000a90047effffffffffffffffffffffffffffffffffffffffffffffffffffffffffffff167effffffffffffffffffffffffffffffffffffffffffffffffffffffffffffff16611259565b9050919050565b610c1a611889565b6001600960008373ffffffffffffffffffffffffffffffffffffffff1673ffffffffffffffffffffffffffffffffffffffff168152602001908152602001600020600001601f6101000a81548160ff02191690831515021790555050565b6000600960003373ffffffffffffffffffffffffffffffffffffffff1673ffffffffffffffffffffffffffffffffffffffff1681526020019081526020016000206040518060400160405290816000820160009054906101000a90047effffffffffffffffffffffffffffffffffffffffffffffffffffffffffffff167effffffffffffffffffffffffffffffffffffffffffffffffffffffffffffff167effffffffffffffffffffffffffffffffffffffffffffffffffffffffffffff16815260200160008201601f9054906101000a900460ff16151515158152505090508060200151610d9c576040517f08c379a0000000000000000000000000000000000000000000000000000000008152600401610d939061323e565b60405180910390fd5b6706f05b59d3b20000821115610de7576040517f08c379a0000000000000000000000000000000000000000000000000000000008152600401610dde906132aa565b60405180910390fd5b81471015610e2a576040517f08c379a0000000000000000000000000000000000000000000000000000000008152600401610e2190613316565b60405180910390fd5b7fffffffffffffffffffffffffffffffffffffffffffffffffffffffffffffffce600d60003373ffffffffffffffffffffffffffffffffffffffff1673ffffffffffffffffffffffffffffffffffffffff168152602001908152602001600020541215610ecc576040517f08c379a0000000000000000000000000000000000000000000000000000000008152600401610ec390613382565b60405180910390fd5b600a60003373ffffffffffffffffffffffffffffffffffffffff1673ffffffffffffffffffffffffffffffffffffffff16815260200190815260200160002054600c60003373ffffffffffffffffffffffffffffffffffffffff1673ffffffffffffffffffffffffffffffffffffffff16815260200190815260200160002054101580610f975750600b60003373ffffffffffffffffffffffffffffffffffffffff1673ffffffffffffffffffffffffffffffffffffffff1681526020019081526020016000205442115b610fd6576040517f08c379a0000000000000000000000000000000000000000000000000000000008152600401610fcd906133ee565b60405180910390fd5b81600a60003373ffffffffffffffffffffffffffffffffffffffff1673ffffffffffffffffffffffffffffffffffffffff1681526020019081526020016000208190555062278d0042611029919061340e565b600b60003373ffffffffffffffffffffffffffffffffffffffff1673ffffffffffffffffffffffffffffffffffffffff168152602001908152602001600020819055506000600c60003373ffffffffffffffffffffffffffffffffffffffff1673ffffffffffffffffffffffffffffffffffffffff168152602001908152602001600020819055503373ffffffffffffffffffffffffffffffffffffffff166108fc839081150290604051600060405180830381858888f193505050501580156110f7573d6000803e3d6000fd5b503373ffffffffffffffffffffffffffffffffffffffff167f7a954f5289898ac88c79469be62462b769f41c4f171a4f4591ef5a62b6fbf74f8360405161113e9190612e1b565b60405180910390a25050565b6000600760009054906101000a900473ffffffffffffffffffffffffffffffffffffffff16905090565b60606001805461118390613069565b80601f01602080910402602001604051908101604052809291908181526020018280546111af90613069565b80156111fc5780601f106111d1576101008083540402835291602001916111fc565b820191906000526020600020905b8154815290600101906020018083116111df57829003601f168201915b5050505050905090565b61121861121161186f565b8383611d45565b5050565b61122784848461094c565b61123b61123261186f565b85858585611eb4565b50505050565b600c6020528060005260406000206000915090505481565b606061126482612065565b9050919050565b600b6020528060005260406000206000915090505481565b6000600560008473ffffffffffffffffffffffffffffffffffffffff1673ffffffffffffffffffffffffffffffffffffffff16815260200190815260200160002060008373ffffffffffffffffffffffffffffffffffffffff1673ffffffffffffffffffffffffffffffffffffffff16815260200190815260200160002060009054906101000a900460ff16905092915050565b61131f611889565b600073ffffffffffffffffffffffffffffffffffffffff168173ffffffffffffffffffffffffffffffffffffffff16036113915760006040517f1e4fbdf70000000000000000000000000000000000000000000000000000000081526004016113889190612b11565b60405180910390fd5b61139a81611c7f565b50565b600d6020528060005260406000206000915090505481565b6000600a60003373ffffffffffffffffffffffffffffffffffffffff1673ffffffffffffffffffffffffffffffffffffffff1681526020019081526020016000205490506000600c60003373ffffffffffffffffffffffffffffffffffffffff1673ffffffffffffffffffffffffffffffffffffffff16815260200190815260200160002054905081811061147f576040517f08c379a00000000000000000000000000000000000000000000000000000000081526004016114769061348e565b60405180910390fd5b6000818361148d91906134ae565b9050803411156114d2576040517f08c379a00000000000000000000000000000000000000000000000000000000081526004016114c99061352e565b60405180910390fd5b34600c60003373ffffffffffffffffffffffffffffffffffffffff1673ffffffffffffffffffffffffffffffffffffffff1681526020019081526020016000206000828254611521919061340e565b9250508190555082600c60003373ffffffffffffffffffffffffffffffffffffffff1673ffffffffffffffffffffffffffffffffffffffff16815260200190815260200160002054106116f657600b60003373ffffffffffffffffffffffffffffffffffffffff1673ffffffffffffffffffffffffffffffffffffffff168152602001908152602001600020544211611610576028600d60003373ffffffffffffffffffffffffffffffffffffffff1673ffffffffffffffffffffffffffffffffffffffff1681526020019081526020016000206000828254611604919061354e565b92505081905550611668565b6032600d60003373ffffffffffffffffffffffffffffffffffffffff1673ffffffffffffffffffffffffffffffffffffffff16815260200190815260200160002060008282546116609190613592565b925050819055505b3373ffffffffffffffffffffffffffffffffffffffff167f767e29d7921be197e56356c0f65113749c4b2acd8dcfe3cab54dfdb79e7e4cb2600d60003373ffffffffffffffffffffffffffffffffffffffff1673ffffffffffffffffffffffffffffffffffffffff168152602001908152602001600020546040516116ed919061301f565b60405180910390a25b3373ffffffffffffffffffffffffffffffffffffffff167fc200a1f31dd659e356e0f112c82558e25f49f7b0f84438691cd96f5cb35588233460405161173c9190612e1b565b60405180910390a2505050565b6000634906490660e01b7bffffffffffffffffffffffffffffffffffffffffffffffffffffffff1916827bffffffffffffffffffffffffffffffffffffffffffffffffffffffff191614806117a357506117a282612178565b5b9050919050565b6000806117b68361225a565b9050600073ffffffffffffffffffffffffffffffffffffffff168173ffffffffffffffffffffffffffffffffffffffff160361182957826040517f7e2732890000000000000000000000000000000000000000000000000000000081526004016118209190612e1b565b60405180910390fd5b80915050919050565b60006004600083815260200190815260200160002060009054906101000a900473ffffffffffffffffffffffffffffffffffffffff169050919050565b600033905090565b6118848383836001612297565b505050565b61189161186f565b73ffffffffffffffffffffffffffffffffffffffff166118af61114a565b73ffffffffffffffffffffffffffffffffffffffff161461190e576118d261186f565b6040517f118cdaa70000000000000000000000000000000000000000000000000000000081526004016119059190612b11565b60405180910390fd5b565b600073ffffffffffffffffffffffffffffffffffffffff168273ffffffffffffffffffffffffffffffffffffffff16036119825760006040517f64a0ae920000000000000000000000000000000000000000000000000000000081526004016119799190612b11565b60405180910390fd5b600061199083836000611a65565b9050600073ffffffffffffffffffffffffffffffffffffffff168173ffffffffffffffffffffffffffffffffffffffff1614611a045760006040517f73c6ac6e0000000000000000000000000000000000000000000000000000000081526004016119fb9190612b11565b60405180910390fd5b505050565b80600660008481526020019081526020016000209081611a299190613781565b507ff8e1a15aba9398e019f0b49df1a4fde98ee17ae345cb5f6b5e2c27f5033e8ce782604051611a599190612e1b565b60405180910390a15050565b600080611a718461225a565b9050600073ffffffffffffffffffffffffffffffffffffffff168373ffffffffffffffffffffffffffffffffffffffff1614611ab357611ab281848661245c565b5b600073ffffffffffffffffffffffffffffffffffffffff168173ffffffffffffffffffffffffffffffffffffffff1614611b4457611af5600085600080612297565b6001600360008373ffffffffffffffffffffffffffffffffffffffff1673ffffffffffffffffffffffffffffffffffffffff168152602001908152602001600020600082825403925050819055505b600073ffffffffffffffffffffffffffffffffffffffff168573ffffffffffffffffffffffffffffffffffffffff1614611bc7576001600360008773ffffffffffffffffffffffffffffffffffffffff1673ffffffffffffffffffffffffffffffffffffffff168152602001908152602001600020600082825401925050819055505b846002600086815260200190815260200160002060006101000a81548173ffffffffffffffffffffffffffffffffffffffff021916908373ffffffffffffffffffffffffffffffffffffffff160217905550838573ffffffffffffffffffffffffffffffffffffffff168273ffffffffffffffffffffffffffffffffffffffff167fddf252ad1be2c89b69c2b068fc378daa952ba7f163c4a11628f55a4df523b3ef60405160405180910390a4809150509392505050565b6000600760009054906101000a900473ffffffffffffffffffffffffffffffffffffffff16905081600760006101000a81548173ffffffffffffffffffffffffffffffffffffffff021916908373ffffffffffffffffffffffffffffffffffffffff1602179055508173ffffffffffffffffffffffffffffffffffffffff168173ffffffffffffffffffffffffffffffffffffffff167f8be0079c531659141344cd1fd0a4f28419497f9722a3daafe3b4186f6b6457e060405160405180910390a35050565b600073ffffffffffffffffffffffffffffffffffffffff168273ffffffffffffffffffffffffffffffffffffffff1603611db657816040517f5b08ba18000000000000000000000000000000000000000000000000000000008152600401611dad9190612b11565b60405180910390fd5b80600560008573ffffffffffffffffffffffffffffffffffffffff1673ffffffffffffffffffffffffffffffffffffffff16815260200190815260200160002060008473ffffffffffffffffffffffffffffffffffffffff1673ffffffffffffffffffffffffffffffffffffffff16815260200190815260200160002060006101000a81548160ff0219169083151502179055508173ffffffffffffffffffffffffffffffffffffffff168373ffffffffffffffffffffffffffffffffffffffff167f17307eab39ab6107e8899845ad3d59bd9653f200f220920489ca2b5937696c3183604051611ea791906129a0565b60405180910390a3505050565b60008373ffffffffffffffffffffffffffffffffffffffff163b111561205e578273ffffffffffffffffffffffffffffffffffffffff1663150b7a02868685856040518563ffffffff1660e01b8152600401611f1394939291906138a8565b6020604051808303816000875af1925050508015611f4f57506040513d601f19601f82011682018060405250810190611f4c9190613909565b60015b611fd3573d8060008114611f7f576040519150601f19603f3d011682016040523d82523d6000602084013e611f84565b606091505b506000815103611fcb57836040517f64a0ae92000000000000000000000000000000000000000000000000000000008152600401611fc29190612b11565b60405180910390fd5b805181602001fd5b63150b7a0260e01b7bffffffffffffffffffffffffffffffffffffffffffffffffffffffff1916817bffffffffffffffffffffffffffffffffffffffffffffffffffffffff19161461205c57836040517f64a0ae920000000000000000000000000000000000000000000000000000000081526004016120539190612b11565b60405180910390fd5b505b5050505050565b6060612070826117aa565b50600060066000848152602001908152602001600020805461209190613069565b80601f01602080910402602001604051908101604052809291908181526020018280546120bd90613069565b801561210a5780601f106120df5761010080835404028352916020019161210a565b820191906000526020600020905b8154815290600101906020018083116120ed57829003601f168201915b50505050509050600061211b612520565b90506000815103612130578192505050612173565b60008251111561216557808260405160200161214d929190613936565b60405160208183030381529060405292505050612173565b61216e84612537565b925050505b919050565b60007f80ac58cd000000000000000000000000000000000000000000000000000000007bffffffffffffffffffffffffffffffffffffffffffffffffffffffff1916827bffffffffffffffffffffffffffffffffffffffffffffffffffffffff1916148061224357507f5b5e139f000000000000000000000000000000000000000000000000000000007bffffffffffffffffffffffffffffffffffffffffffffffffffffffff1916827bffffffffffffffffffffffffffffffffffffffffffffffffffffffff1916145b806122535750612252826125a0565b5b9050919050565b60006002600083815260200190815260200160002060009054906101000a900473ffffffffffffffffffffffffffffffffffffffff169050919050565b80806122d05750600073ffffffffffffffffffffffffffffffffffffffff168273ffffffffffffffffffffffffffffffffffffffff1614155b156124045760006122e0846117aa565b9050600073ffffffffffffffffffffffffffffffffffffffff168373ffffffffffffffffffffffffffffffffffffffff161415801561234b57508273ffffffffffffffffffffffffffffffffffffffff168173ffffffffffffffffffffffffffffffffffffffff1614155b801561235e575061235c8184611283565b155b156123a057826040517fa9fbf51f0000000000000000000000000000000000000000000000000000000081526004016123979190612b11565b60405180910390fd5b811561240257838573ffffffffffffffffffffffffffffffffffffffff168273ffffffffffffffffffffffffffffffffffffffff167f8c5be1e5ebec7d5bd14f71427d1e84f3dd0314c0f7b2291e5b200ac8c7c3b92560405160405180910390a45b505b836004600085815260200190815260200160002060006101000a81548173ffffffffffffffffffffffffffffffffffffffff021916908373ffffffffffffffffffffffffffffffffffffffff16021790555050505050565b61246783838361260a565b61251b57600073ffffffffffffffffffffffffffffffffffffffff168373ffffffffffffffffffffffffffffffffffffffff16036124dc57806040517f7e2732890000000000000000000000000000000000000000000000000000000081526004016124d39190612e1b565b60405180910390fd5b81816040517f177e802f00000000000000000000000000000000000000000000000000000000815260040161251292919061395a565b60405180910390fd5b505050565b606060405180602001604052806000815250905090565b6060612542826117aa565b50600061254d612520565b9050600081511161256d5760405180602001604052806000815250612598565b80612577846126cb565b604051602001612588929190613936565b6040516020818303038152906040525b915050919050565b60007f01ffc9a7000000000000000000000000000000000000000000000000000000007bffffffffffffffffffffffffffffffffffffffffffffffffffffffff1916827bffffffffffffffffffffffffffffffffffffffffffffffffffffffff1916149050919050565b60008073ffffffffffffffffffffffffffffffffffffffff168373ffffffffffffffffffffffffffffffffffffffff16141580156126c257508273ffffffffffffffffffffffffffffffffffffffff168473ffffffffffffffffffffffffffffffffffffffff16148061268357506126828484611283565b5b806126c157508273ffffffffffffffffffffffffffffffffffffffff166126a983611832565b73ffffffffffffffffffffffffffffffffffffffff16145b5b90509392505050565b6060600060016126da84612799565b01905060008167ffffffffffffffff8111156126f9576126f8612ba2565b5b6040519080825280601f01601f19166020018201604052801561272b5781602001600182028036833780820191505090505b509050600082602001820190505b60011561278e578080600190039150507f3031323334353637383961626364656600000000000000000000000000000000600a86061a8153600a858161278257612781613983565b5b04945060008503612739575b819350505050919050565b600080600090507a184f03e93ff9f4daa797ed6e38ed64bf6a1f01000000000000000083106127f7577a184f03e93ff9f4daa797ed6e38ed64bf6a1f01000000000000000083816127ed576127ec613983565b5b0492506040810190505b6d04ee2d6d415b85acef81000000008310612834576d04ee2d6d415b85acef8100000000838161282a57612829613983565b5b0492506020810190505b662386f26fc10000831061286357662386f26fc10000838161285957612858613983565b5b0492506010810190505b6305f5e100831061288c576305f5e100838161288257612881613983565b5b0492506008810190505b61271083106128b15761271083816128a7576128a6613983565b5b0492506004810190505b606483106128d457606483816128ca576128c9613983565b5b0492506002810190505b600a83106128e3576001810190505b80915050919050565b6000604051905090565b600080fd5b600080fd5b60007fffffffff0000000000000000000000000000000000000000000000000000000082169050919050565b61293581612900565b811461294057600080fd5b50565b6000813590506129528161292c565b92915050565b60006020828403121561296e5761296d6128f6565b5b600061297c84828501612943565b91505092915050565b60008115159050919050565b61299a81612985565b82525050565b60006020820190506129b56000830184612991565b92915050565b600081519050919050565b600082825260208201905092915050565b60005b838110156129f55780820151818401526020810190506129da565b60008484015250505050565b6000601f19601f8301169050919050565b6000612a1d826129bb565b612a2781856129c6565b9350612a378185602086016129d7565b612a4081612a01565b840191505092915050565b60006020820190508181036000830152612a658184612a12565b905092915050565b6000819050919050565b612a8081612a6d565b8114612a8b57600080fd5b50565b600081359050612a9d81612a77565b92915050565b600060208284031215612ab957612ab86128f6565b5b6000612ac784828501612a8e565b91505092915050565b600073ffffffffffffffffffffffffffffffffffffffff82169050919050565b6000612afb82612ad0565b9050919050565b612b0b81612af0565b82525050565b6000602082019050612b266000830184612b02565b92915050565b612b3581612af0565b8114612b4057600080fd5b50565b600081359050612b5281612b2c565b92915050565b60008060408385031215612b6f57612b6e6128f6565b5b6000612b7d85828601612b43565b9250506020612b8e85828601612a8e565b9150509250929050565b600080fd5b600080fd5b7f4e487b7100000000000000000000000000000000000000000000000000000000600052604160045260246000fd5b612bda82612a01565b810181811067ffffffffffffffff82111715612bf957612bf8612ba2565b5b80604052505050565b6000612c0c6128ec565b9050612c188282612bd1565b919050565b600067ffffffffffffffff821115612c3857612c37612ba2565b5b612c4182612a01565b9050602081019050919050565b82818337600083830152505050565b6000612c70612c6b84612c1d565b612c02565b905082815260208101848484011115612c8c57612c8b612b9d565b5b612c97848285612c4e565b509392505050565b600082601f830112612cb457612cb3612b98565b5b8135612cc4848260208601612c5d565b91505092915050565b60008060408385031215612ce457612ce36128f6565b5b6000612cf285828601612b43565b925050602083013567ffffffffffffffff811115612d1357612d126128fb565b5b612d1f85828601612c9f565b9150509250929050565b600060208284031215612d3f57612d3e6128f6565b5b6000612d4d84828501612b43565b91505092915050565b60007effffffffffffffffffffffffffffffffffffffffffffffffffffffffffffff82169050919050565b612d8a81612d56565b82525050565b6000604082019050612da56000830185612d81565b612db26020830184612991565b9392505050565b600080600060608486031215612dd257612dd16128f6565b5b6000612de086828701612b43565b9350506020612df186828701612b43565b9250506040612e0286828701612a8e565b9150509250925092565b612e1581612a6d565b82525050565b6000602082019050612e306000830184612e0c565b92915050565b612e3f81612985565b8114612e4a57600080fd5b50565b600081359050612e5c81612e36565b92915050565b60008060408385031215612e7957612e786128f6565b5b6000612e8785828601612b43565b9250506020612e9885828601612e4d565b9150509250929050565b600067ffffffffffffffff821115612ebd57612ebc612ba2565b5b612ec682612a01565b9050602081019050919050565b6000612ee6612ee184612ea2565b612c02565b905082815260208101848484011115612f0257612f01612b9d565b5b612f0d848285612c4e565b509392505050565b600082601f830112612f2a57612f29612b98565b5b8135612f3a848260208601612ed3565b91505092915050565b60008060008060808587031215612f5d57612f5c6128f6565b5b6000612f6b87828801612b43565b9450506020612f7c87828801612b43565b9350506040612f8d87828801612a8e565b925050606085013567ffffffffffffffff811115612fae57612fad6128fb565b5b612fba87828801612f15565b91505092959194509250565b60008060408385031215612fdd57612fdc6128f6565b5b6000612feb85828601612b43565b9250506020612ffc85828601612b43565b9150509250929050565b6000819050919050565b61301981613006565b82525050565b60006020820190506130346000830184613010565b92915050565b7f4e487b7100000000000000000000000000000000000000000000000000000000600052602260045260246000fd5b6000600282049050600182168061308157607f821691505b6020821081036130945761309361303a565b5b50919050565b7f4e487b7100000000000000000000000000000000000000000000000000000000600052601160045260246000fd5b60006130d482612a6d565b91507fffffffffffffffffffffffffffffffffffffffffffffffffffffffffffffffff82036131065761310561309a565b5b600182019050919050565b600081905092915050565b7f697066733a2f2f00000000000000000000000000000000000000000000000000600082015250565b6000613152600783613111565b915061315d8261311c565b600782019050919050565b6000613173826129bb565b61317d8185613111565b935061318d8185602086016129d7565b80840191505092915050565b60006131a482613145565b91506131b08284613168565b915081905092915050565b60006060820190506131d06000830186612b02565b6131dd6020830185612e0c565b6131ea6040830184612b02565b949350505050565b7f556e766572696669656420646f63756d656e7473000000000000000000000000600082015250565b60006132286014836129c6565b9150613233826131f2565b602082019050919050565b600060208201905081810360008301526132578161321b565b9050919050565b7f45786365656473206d6178696d756d206c6f616e000000000000000000000000600082015250565b60006132946014836129c6565b915061329f8261325e565b602082019050919050565b600060208201905081810360008301526132c381613287565b9050919050565b7f496e73756666696369656e742066756e64730000000000000000000000000000600082015250565b60006133006012836129c6565b915061330b826132ca565b602082019050919050565b6000602082019050818103600083015261332f816132f3565b9050919050565b7f506f6f722063726564697420686973746f727900000000000000000000000000600082015250565b600061336c6013836129c6565b915061337782613336565b602082019050919050565b6000602082019050818103600083015261339b8161335f565b9050919050565b7f4578697374696e6720616374697665206c6f616e000000000000000000000000600082015250565b60006133d86014836129c6565b91506133e3826133a2565b602082019050919050565b60006020820190508181036000830152613407816133cb565b9050919050565b600061341982612a6d565b915061342483612a6d565b925082820190508082111561343c5761343b61309a565b5b92915050565b7f4e6f20616374697665206c6f616e000000000000000000000000000000000000600082015250565b6000613478600e836129c6565b915061348382613442565b602082019050919050565b600060208201905081810360008301526134a78161346b565b9050919050565b60006134b982612a6d565b91506134c483612a6d565b92508282039050818111156134dc576134db61309a565b5b92915050565b7f4f7665727061796d656e74000000000000000000000000000000000000000000600082015250565b6000613518600b836129c6565b9150613523826134e2565b602082019050919050565b600060208201905081810360008301526135478161350b565b9050919050565b600061355982613006565b915061356483613006565b92508282019050828112156000831216838212600084121516171561358c5761358b61309a565b5b92915050565b600061359d82613006565b91506135a883613006565b92508282039050818112600084121682821360008512151617156135cf576135ce61309a565b5b92915050565b60008190508160005260206000209050919050565b60006020601f8301049050919050565b600082821b905092915050565b6000600883026136377fffffffffffffffffffffffffffffffffffffffffffffffffffffffffffffffff826135fa565b61364186836135fa565b95508019841693508086168417925050509392505050565b6000819050919050565b600061367e61367961367484612a6d565b613659565b612a6d565b9050919050565b6000819050919050565b61369883613663565b6136ac6136a482613685565b848454613607565b825550505050565b600090565b6136c16136b4565b6136cc81848461368f565b505050565b5b818110156136f0576136e56000826136b9565b6001810190506136d2565b5050565b601f82111561373557613706816135d5565b61370f846135ea565b8101602085101561371e578190505b61373261372a856135ea565b8301826136d1565b50505b505050565b600082821c905092915050565b60006137586000198460080261373a565b1980831691505092915050565b60006137718383613747565b9150826002028217905092915050565b61378a826129bb565b67ffffffffffffffff8111156137a3576137a2612ba2565b5b6137ad8254613069565b6137b88282856136f4565b600060209050601f8311600181146137eb57600084156137d9578287015190505b6137e38582613765565b86555061384b565b601f1984166137f9866135d5565b60005b82811015613821578489015182556001820191506020850194506020810190506137fc565b8683101561383e578489015161383a601f891682613747565b8355505b6001600288020188555050505b505050505050565b600081519050919050565b600082825260208201905092915050565b600061387a82613853565b613884818561385e565b93506138948185602086016129d7565b61389d81612a01565b840191505092915050565b60006080820190506138bd6000830187612b02565b6138ca6020830186612b02565b6138d76040830185612e0c565b81810360608301526138e9818461386f565b905095945050505050565b6000815190506139038161292c565b92915050565b60006020828403121561391f5761391e6128f6565b5b600061392d848285016138f4565b91505092915050565b60006139428285613168565b915061394e8284613168565b91508190509392505050565b600060408201905061396f6000830185612b02565b61397c6020830184612e0c565b9392505050565b7f4e487b7100000000000000000000000000000000000000000000000000000000600052601260045260246000fdfea2646970667358221220b06cc56327f8f52182ccbb353955eeb0ac9712b293aeb5005c47e51fe68ebbde64736f6c634300081c0033",
  "linkReferences": {},
  "deployedLinkReferences": {}
}